{
  "_format": "hh3-artifact-1",
  "contractName": "FactoryOps",
  "sourceName": "contracts/implementation/FactoryOps.sol",
  "abi": [
    {
      "inputs": [
        {
          "internalType": "address",
          "name": "owner",
          "type": "address"
        },
        {
          "internalType": "uint16",
          "name": "limit",
          "type": "uint16"
        }
      ],
      "name": "StashLimitReached",
      "type": "error"
    },
    {
      "inputs": [
        {
          "internalType": "address",
          "name": "account",
          "type": "address"
        },
        {
          "internalType": "string",
          "name": "message",
          "type": "string"
        }
      ],
      "name": "UnauthorizedAccount",
      "type": "error"
    },
    {
      "inputs": [
        {
          "internalType": "string",
          "name": "message",
          "type": "string"
        }
      ],
      "name": "ZeroAddressNotAllowed",
      "type": "error"
    },
    {
      "anonymous": false,
      "inputs": [
        {
          "indexed": true,
          "internalType": "address",
          "name": "previousOwner",
          "type": "address"
        },
        {
          "indexed": true,
          "internalType": "address",
          "name": "newOwner",
          "type": "address"
        }
      ],
      "name": "OwnershipTransferred",
      "type": "event"
    },
    {
      "anonymous": false,
      "inputs": [
        {
          "indexed": true,
          "internalType": "address",
          "name": "previousOwner",
          "type": "address"
        },
        {
          "indexed": true,
          "internalType": "address",
          "name": "newOwner",
          "type": "address"
        }
      ],
      "name": "OwnershipTransferred",
      "type": "event"
    },
    {
      "anonymous": false,
      "inputs": [
        {
          "indexed": true,
          "internalType": "address",
          "name": "owner",
          "type": "address"
        },
        {
          "indexed": true,
          "internalType": "address",
          "name": "stash",
          "type": "address"
        },
        {
          "indexed": true,
          "internalType": "uint256",
          "name": "index",
          "type": "uint256"
        }
      ],
      "name": "StashCreated",
      "type": "event"
    },
    {
      "anonymous": false,
      "inputs": [
        {
          "indexed": true,
          "internalType": "address",
          "name": "owner",
          "type": "address"
        },
        {
          "indexed": true,
          "internalType": "address",
          "name": "stash",
          "type": "address"
        },
        {
          "indexed": true,
          "internalType": "uint256",
          "name": "index",
          "type": "uint256"
        }
      ],
      "name": "StashDeployed",
      "type": "event"
    },
    {
      "inputs": [
        {
          "internalType": "address",
          "name": "_ownerAddress",
          "type": "address"
        }
      ],
      "name": "createStash",
      "outputs": [],
      "stateMutability": "nonpayable",
      "type": "function"
    },
    {
      "inputs": [],
      "name": "createStash",
      "outputs": [],
      "stateMutability": "nonpayable",
      "type": "function"
    },
    {
      "inputs": [],
      "name": "getLookupProxy",
      "outputs": [
        {
          "internalType": "address",
          "name": "",
          "type": "address"
        }
      ],
      "stateMutability": "view",
      "type": "function"
    },
    {
      "inputs": [
        {
          "internalType": "address",
          "name": "_ownerAddress",
          "type": "address"
        }
      ],
      "name": "getStashes",
      "outputs": [
        {
          "internalType": "address[]",
          "name": "stashes",
          "type": "address[]"
        },
        {
          "internalType": "uint256",
          "name": "currentCount",
          "type": "uint256"
        }
      ],
      "stateMutability": "view",
      "type": "function"
    },
    {
      "inputs": [
        {
          "internalType": "address",
          "name": "_stash",
          "type": "address"
        }
      ],
      "name": "isStash",
      "outputs": [
        {
          "internalType": "bool",
          "name": "",
          "type": "bool"
        }
      ],
      "stateMutability": "view",
      "type": "function"
    },
    {
      "inputs": [],
      "name": "owner",
      "outputs": [
        {
          "internalType": "address",
          "name": "",
          "type": "address"
        }
      ],
      "stateMutability": "view",
      "type": "function"
    },
    {
      "inputs": [],
      "name": "renounceOwnership",
      "outputs": [],
      "stateMutability": "nonpayable",
      "type": "function"
    },
    {
      "inputs": [
        {
          "internalType": "bytes4",
          "name": "_interfaceId",
          "type": "bytes4"
        }
      ],
      "name": "supportsInterface",
      "outputs": [
        {
          "internalType": "bool",
          "name": "",
          "type": "bool"
        }
      ],
      "stateMutability": "view",
      "type": "function"
    },
    {
      "inputs": [
        {
          "internalType": "address",
          "name": "_newOwner",
          "type": "address"
        }
      ],
      "name": "transferOwnership",
      "outputs": [],
      "stateMutability": "nonpayable",
      "type": "function"
    }
  ],
  "bytecode": "0x6080604052348015600e575f5ffd5b50610f258061001c5f395ff3fe608060405234801561000f575f5ffd5b5060043610610090575f3560e01c80638da5cb5b116100635780638da5cb5b146100f95780639123eedb14610101578063af80ca5e14610114578063b5970c6a1461011c578063f2fde38b1461013d575f5ffd5b806301ffc9a714610094578063382679f8146100bc578063715018a6146100cf5780638558d3f4146100d9575b5f5ffd5b6100a76100a23660046107cc565b610150565b60405190151581526020015b60405180910390f35b6100a76100ca3660046107fa565b610192565b6100d76101d1565b005b6100e1610247565b6040516001600160a01b0390911681526020016100b3565b6100e161027e565b6100d761010f3660046107fa565b610287565b6100d76102fd565b61012f61012a3660046107fa565b610306565b6040516100b3929190610820565b6100d761014b3660046107fa565b61031b565b6001600160e01b031981165f9081527fd24fa2866a58892622e1ec1b1f591a414cecdee3133ac988707bf0aea153bf14602052604081205460ff165b92915050565b6001600160a01b0381165f9081527fd03fa43b3766bf905757ac955a2fb96267e2435c59ba0b562aaf4fed51cfa476602052604081205460ff1661018c565b6101d961038d565b6001600160a01b0316336001600160a01b03161461023c57335b604080516388c4b81360e01b81526001600160a01b039092166004830152602482015260096044820152682727aa2fa7aba722a960b91b60648201526084015b60405180910390fd5b6102455f6103bf565b565b5f6102797fd24fa2866a58892622e1ec1b1f591a414cecdee3133ac988707bf0aea153bf12546001600160a01b031690565b905090565b5f61027961038d565b61028f61038d565b6001600160a01b0316336001600160a01b0316146102ad57336101f3565b6001600160a01b0381166102f157604051634403424160e01b815260206004820152600a60248201526954505f4144445245535360b01b6044820152606401610233565b6102fa816103c8565b50565b610245336103c8565b60605f61031283610589565b91509150915091565b61032361038d565b6001600160a01b0316336001600160a01b03161461034157336101f3565b6001600160a01b03811661038457604051634403424160e01b81526020600482015260096024820152682722abafa7aba722a960b91b6044820152606401610233565b6102fa816103bf565b5f6102797fd24fa2866a58892622e1ec1b1f591a414cecdee3133ac988707bf0aea153bf11546001600160a01b031690565b6102fa8161061e565b5f5f5f6103fc7fd24fa2866a58892622e1ec1b1f591a414cecdee3133ac988707bf0aea153bf12546001600160a01b031690565b90505f61042b7fd03fa43b3766bf905757ac955a2fb96267e2435c59ba0b562aaf4fed51cfa4755461ffff1690565b905061043685610589565b93505061ffff81168310610472576040516320a3b79360e01b81526001600160a01b038616600482015261ffff82166024820152604401610233565b6040516bffffffffffffffffffffffff19606087901b166020820152603481018490525f906054016040516020818303038152906040528051906020012090505f604051806020016104c3906107bf565b601f1982820381018352601f9091011660408181526001600160a01b038a8116602084015230918301919091528616606082015260800160408051601f1981840301815290829052610518929160200161088c565b6040516020818303038152906040529050818151602083015ff5955061053f878787610703565b84866001600160a01b0316886001600160a01b03167f4afa036fab04062ae111d94b896213d0592e796f40a998e1de77e16399c2e4cb60405160405180910390a450505050505050565b6001600160a01b0381165f9081527fd03fa43b3766bf905757ac955a2fb96267e2435c59ba0b562aaf4fed51cfa4776020908152604080832080548251818502810185019093528083526060949383018282801561060e57602002820191905f5260205f20905b81546001600160a01b031681526001909101906020018083116105f0575b5050505050915081519050915091565b6001600160a01b03811661065d57604051634403424160e01b815260206004820152600560248201526427aba722a960d91b6044820152606401610233565b5f61068f7fd24fa2866a58892622e1ec1b1f591a414cecdee3133ac988707bf0aea153bf11546001600160a01b031690565b7fd24fa2866a58892622e1ec1b1f591a414cecdee3133ac988707bf0aea153bf1180546001600160a01b0319166001600160a01b038581169182178355604051939450919290918416907f8be0079c531659141344cd1fd0a4f28419497f9722a3daafe3b4186f6b6457e0905f90a3505050565b6001600160a01b0383165f9081527fd03fa43b3766bf905757ac955a2fb96267e2435c59ba0b562aaf4fed51cfa4776020526040902080546001018082557fd03fa43b3766bf905757ac955a2fb96267e2435c59ba0b562aaf4fed51cfa47591849184908110610775576107756108a8565b5f91825260208083209190910180546001600160a01b0319166001600160a01b0394851617905594909116815260019182019093526040909220805460ff19169092179091555050565b610633806108bd83390190565b5f602082840312156107dc575f5ffd5b81356001600160e01b0319811681146107f3575f5ffd5b9392505050565b5f6020828403121561080a575f5ffd5b81356001600160a01b03811681146107f3575f5ffd5b604080825283519082018190525f9060208501906060840190835b818110156108625783516001600160a01b031683526020938401939092019160010161083b565b5050602093909301939093525092915050565b5f81518060208401855e5f93019283525090919050565b5f6108a061089a8386610875565b84610875565b949350505050565b634e487b7160e01b5f52603260045260245ffdfe608060405234801561000f575f5ffd5b5060405161063338038061063383398101604081905261002e9161036b565b61003783610075565b61004082610139565b610049816101c4565b61005b6301ffc9a760e01b6001610298565b61006d6307f5828d60e41b6001610298565b5050506103ab565b6001600160a01b0381166100b957604051634403424160e01b815260206004820152600560248201526427aba722a960d91b60448201526064015b60405180910390fd5b5f6100d85f5160206105f35f395f51905f52546001600160a01b031690565b5f5160206105f35f395f51905f5280546001600160a01b0319166001600160a01b038581169182178355604051939450919290918416907f8be0079c531659141344cd1fd0a4f28419497f9722a3daafe3b4186f6b6457e0905f90a3505050565b6001600160a01b03811661018357604051634403424160e01b815260206004820152601060248201526f50524f544f434f4c5f464143544f525960801b60448201526064016100b0565b7fd24fa2866a58892622e1ec1b1f591a414cecdee3133ac988707bf0aea153bf1380546001600160a01b0319166001600160a01b0392909216919091179055565b6001600160a01b03811661020a57604051634403424160e01b815260206004820152600c60248201526b4c4f4f4b55505f50524f585960a01b60448201526064016100b0565b5f6102295f5160206106135f395f51905f52546001600160a01b031690565b5f5160206106135f395f51905f5280546001600160a01b0319166001600160a01b038581169182179092556040519293505f5160206105f35f395f51905f529290918416907fc19596042843fbf5f6f1d1919298a1c5db9add7bf8247d464e236159fff823e8905f90a3505050565b6001600160e01b031982166103065760408051633b4bcbcd60e01b81526004810191909152600c60448201526b17da5b9d195c999858d9525960a21b606482015260806024820152600e60848201526d0929cac82989288be988a9c8ea8960931b60a482015260c4016100b0565b6001600160e01b0319919091165f9081527fd24fa2866a58892622e1ec1b1f591a414cecdee3133ac988707bf0aea153bf1460205260409020805460ff1916911515919091179055565b80516001600160a01b0381168114610366575f5ffd5b919050565b5f5f5f6060848603121561037d575f5ffd5b61038684610350565b925061039460208501610350565b91506103a260408501610350565b90509250925092565b61023b806103b85f395ff3fe608060405260043610610021575f3560e01c8063bdca8184146100695761005f565b3661005f57604051348152339030907f54ef209e319f7d023f4f2c1d4b427c3844f7ef008d20a2104b1f20cb533a7fbf9060200160405180910390a3005b6100676100a4565b005b348015610074575f5ffd5b50610087671a76ecadaefb8d4f60c01b81565b6040516001600160c01b0319909116815260200160405180910390f35b5f6100b95f356001600160e01b031916610121565b90506001600160a01b0381163b61010357604051630250902b60e61b81526001600160a01b03821660048201526001600160e01b03195f3516602482015260440160405180910390fd5b365f5f375f5f365f845af43d5f5f3e80801561011d573d5ff35b3d5ffd5b5f5f6101547fd24fa2866a58892622e1ec1b1f591a414cecdee3133ac988707bf0aea153bf12546001600160a01b031690565b6040516303a8d1ad60e31b81526001600160e01b031985166004820152671a76ecadaefb8d4f60c01b60248201529091506001600160a01b03821690631d468d6890604401602060405180830381865afa1580156101b4573d5f5f3e3d5ffd5b505050506040513d601f19601f820116820180604052508101906101d891906101df565b9392505050565b5f602082840312156101ef575f5ffd5b81516001600160a01b03811681146101d8575f5ffdfea26469706673582212203a253e548ac5fb8100df997f4ce0e2a4cfc4f20959a7fc4345da495a4f177be364736f6c634300081c0033d24fa2866a58892622e1ec1b1f591a414cecdee3133ac988707bf0aea153bf11d24fa2866a58892622e1ec1b1f591a414cecdee3133ac988707bf0aea153bf12a2646970667358221220e5f46029869fc36b370bd3a0d59158844b2e848b63952a4d88cc95d501c4c81264736f6c634300081c0033",
  "linkReferences": {},
  "deployedLinkReferences": {},
  "immutableReferences": {},
  "inputSourceName": "project/contracts/implementation/FactoryOps.sol",
  "buildInfoId": "solc-0_8_28-852f16253f53b40abea5b3c67041250a48cb5b5e"
}