{
  "_format": "hh3-artifact-1",
  "contractName": "FactoryProxy",
  "sourceName": "contracts/FactoryProxy.sol",
  "abi": [
    {
      "inputs": [
        {
          "internalType": "address",
          "name": "owner",
          "type": "address"
        },
        {
          "internalType": "address",
          "name": "proxyAdmin",
          "type": "address"
        },
        {
          "internalType": "address",
          "name": "implementation",
          "type": "address"
        },
        {
          "internalType": "address",
          "name": "stashLookup",
          "type": "address"
        },
        {
          "internalType": "uint16",
          "name": "userMaxStash",
          "type": "uint16"
        }
      ],
      "stateMutability": "nonpayable",
      "type": "constructor"
    },
    {
      "inputs": [
        {
          "internalType": "string",
          "name": "action",
          "type": "string"
        }
      ],
      "name": "ActionRejected",
      "type": "error"
    },
    {
      "inputs": [
        {
          "internalType": "address",
          "name": "target",
          "type": "address"
        }
      ],
      "name": "AddressEmptyCode",
      "type": "error"
    },
    {
      "inputs": [],
      "name": "FailedCall",
      "type": "error"
    },
    {
      "inputs": [
        {
          "internalType": "string",
          "name": "input",
          "type": "string"
        },
        {
          "internalType": "string",
          "name": "message",
          "type": "string"
        }
      ],
      "name": "InvalidInputData",
      "type": "error"
    },
    {
      "inputs": [
        {
          "internalType": "address",
          "name": "target",
          "type": "address"
        }
      ],
      "name": "NotContractAddress",
      "type": "error"
    },
    {
      "inputs": [
        {
          "internalType": "string",
          "name": "message",
          "type": "string"
        }
      ],
      "name": "ZeroAddressNotAllowed",
      "type": "error"
    },
    {
      "anonymous": false,
      "inputs": [
        {
          "indexed": true,
          "internalType": "address",
          "name": "previousAdmin",
          "type": "address"
        },
        {
          "indexed": true,
          "internalType": "address",
          "name": "newAdmin",
          "type": "address"
        }
      ],
      "name": "AdminChanged",
      "type": "event"
    },
    {
      "anonymous": false,
      "inputs": [
        {
          "indexed": true,
          "internalType": "address",
          "name": "previousProxy",
          "type": "address"
        },
        {
          "indexed": true,
          "internalType": "address",
          "name": "newProxy",
          "type": "address"
        }
      ],
      "name": "LookupProxyChanged",
      "type": "event"
    },
    {
      "anonymous": false,
      "inputs": [
        {
          "indexed": true,
          "internalType": "address",
          "name": "previousOwner",
          "type": "address"
        },
        {
          "indexed": true,
          "internalType": "address",
          "name": "newOwner",
          "type": "address"
        }
      ],
      "name": "OwnershipTransferred",
      "type": "event"
    },
    {
      "anonymous": false,
      "inputs": [
        {
          "indexed": true,
          "internalType": "address",
          "name": "implementation",
          "type": "address"
        }
      ],
      "name": "Upgraded",
      "type": "event"
    },
    {
      "stateMutability": "payable",
      "type": "fallback"
    },
    {
      "inputs": [],
      "name": "admin",
      "outputs": [
        {
          "internalType": "address",
          "name": "admin_",
          "type": "address"
        }
      ],
      "stateMutability": "nonpayable",
      "type": "function"
    },
    {
      "inputs": [
        {
          "internalType": "address",
          "name": "newAdmin",
          "type": "address"
        }
      ],
      "name": "changeAdmin",
      "outputs": [],
      "stateMutability": "nonpayable",
      "type": "function"
    },
    {
      "inputs": [],
      "name": "implementation",
      "outputs": [
        {
          "internalType": "address",
          "name": "implementation_",
          "type": "address"
        }
      ],
      "stateMutability": "nonpayable",
      "type": "function"
    },
    {
      "inputs": [
        {
          "internalType": "address",
          "name": "newImplementation",
          "type": "address"
        }
      ],
      "name": "upgradeTo",
      "outputs": [],
      "stateMutability": "nonpayable",
      "type": "function"
    },
    {
      "inputs": [
        {
          "internalType": "address",
          "name": "newImplementation",
          "type": "address"
        },
        {
          "internalType": "bytes",
          "name": "data",
          "type": "bytes"
        }
      ],
      "name": "upgradeToAndCall",
      "outputs": [],
      "stateMutability": "payable",
      "type": "function"
    },
    {
      "stateMutability": "payable",
      "type": "receive"
    }
  ],
  "bytecode": "0x608060405234801561000f575f5ffd5b50604051610f5a380380610f5a83398101604081905261002e91610650565b60408051602081019091525f815283908590829061006d60017f360894a13ba1a3210667c828492db98dca3e2076cc3735a920a3ca505d382bbd6106bb565b5f516020610efa5f395f51905f5214610088576100886106da565b6100928282610157565b506100c0905060017fb53127684a568b3173ae13b9f8a6016e243e63b6e8ee1178d6a717850b5d61046106bb565b5f516020610eda5f395f51905f52146100db576100db6106da565b6100e481610180565b506100f09050856101d3565b6100f982610290565b7fd03fa43b3766bf905757ac955a2fb96267e2435c59ba0b562aaf4fed51cfa475805461ffff191661ffff831617905561013b6301ffc9a760e01b6001610364565b61014d6307f5828d60e41b6001610364565b5050505050610704565b6101608261041c565b80511561017c5761017a6001600160a01b0383168261045b565b505b5050565b610189816104d0565b6001600160a01b03811661019b610548565b6001600160a01b03167f7e644d79422f17c01e4894b5f4f588d331ebfa28653d42ae832dc59e38c9798f60405160405180910390a350565b6001600160a01b03811661021757604051634403424160e01b815260206004820152600560248201526427aba722a960d91b60448201526064015b60405180910390fd5b5f61022f5f5f516020610f1a5f395f51905f52610558565b5f516020610f1a5f395f51905f5280546001600160a01b0319166001600160a01b038581169182178355604051939450919290918416907f8be0079c531659141344cd1fd0a4f28419497f9722a3daafe3b4186f6b6457e0905f90a3505050565b6001600160a01b0381166102d657604051634403424160e01b815260206004820152600c60248201526b4c4f4f4b55505f50524f585960a01b604482015260640161020e565b5f6102f55f516020610f3a5f395f51905f52546001600160a01b031690565b5f516020610f3a5f395f51905f5280546001600160a01b0319166001600160a01b038581169182179092556040519293505f516020610f1a5f395f51905f529290918416907fc19596042843fbf5f6f1d1919298a1c5db9add7bf8247d464e236159fff823e8905f90a3505050565b6001600160e01b031982166103d25760408051633b4bcbcd60e01b81526004810191909152600c60448201526b17da5b9d195c999858d9525960a21b606482015260806024820152600e60848201526d0929cac82989288be988a9c8ea8960931b60a482015260c40161020e565b6001600160e01b0319919091165f9081527fd24fa2866a58892622e1ec1b1f591a414cecdee3133ac988707bf0aea153bf1460205260409020805460ff1916911515919091179055565b61042581610567565b6040516001600160a01b038216907fbc7cd75a20ee27fd9adebab32041f755214dbc6bffa90cc0225b39da2e5c2d3b905f90a250565b60605f5f846001600160a01b03168460405161047791906106ee565b5f60405180830381855af49150503d805f81146104af576040519150601f19603f3d011682016040523d82523d5f602084013e6104b4565b606091505b5090925090506104c58583836105ae565b925050505b92915050565b6001600160a01b03811661051757604051634403424160e01b815260206004820152600d60248201526c41444d494e5f4144445245535360981b604482015260640161020e565b805f516020610eda5f395f51905f525b80546001600160a01b0319166001600160a01b039290921691909117905550565b5f5f516020610eda5f395f51905f525b546001600160a01b0316919050565b6001600160a01b0381163b61059a5760405163a77cdf3160e01b81526001600160a01b038216600482015260240161020e565b805f516020610efa5f395f51905f52610527565b6060826105c3576105be8261060d565b610606565b81511580156105da57506001600160a01b0384163b155b1561060357604051639996b31560e01b81526001600160a01b038516600482015260240161020e565b50805b9392505050565b80511561061c57805160208201fd5b60405163d6bda27560e01b815260040160405180910390fd5b80516001600160a01b038116811461064b575f5ffd5b919050565b5f5f5f5f5f60a08688031215610664575f5ffd5b61066d86610635565b945061067b60208701610635565b935061068960408701610635565b925061069760608701610635565b9150608086015161ffff811681146106ad575f5ffd5b809150509295509295909350565b818103818111156104ca57634e487b7160e01b5f52601160045260245ffd5b634e487b7160e01b5f52600160045260245ffd5b5f82518060208501845e5f920191825250919050565b6107c9806107115f395ff3fe60806040526004361061004d575f3560e01c80633659cfe6146100645780634f1ef286146100835780635c60da1b146100965780638f283970146100c6578063f851a440146100e55761005c565b3661005c5761005a6100f9565b005b61005a6100f9565b34801561006f575f5ffd5b5061005a61007e3660046106e6565b610113565b61005a6100913660046106ff565b61019a565b3480156100a1575f5ffd5b506100aa6102a1565b6040516001600160a01b03909116815260200160405180910390f35b3480156100d1575f5ffd5b5061005a6100e03660046106e6565b6102d1565b3480156100f0575f5ffd5b506100aa610334565b610101610354565b61011161010c6103b4565b6103bd565b565b61011b6103db565b6001600160a01b03163303610192576001600160a01b03811661017757604051634403424160e01b815260206004820152600e60248201526d24a6a82622a6a2a72a20aa24a7a760911b60448201526064015b60405180910390fd5b61018f8160405180602001604052805f81525061040d565b50565b61018f6100f9565b6101a26103db565b6001600160a01b03163303610299575f81900361020d57604051633b4bcbcd60e01b815260040161016e906040808252600490820152636461746160e01b6060820152608060208201819052600a90820152695a45524f5f425954455360b01b60a082015260c00190565b6001600160a01b03831661025557604051634403424160e01b815260206004820152600e60248201526d24a6a82622a6a2a72a20aa24a7a760911b604482015260640161016e565b6102948383838080601f0160208091040260200160405190810160405280939291908181526020018383808284375f9201919091525061040d92505050565b505050565b6102946100f9565b5f6102aa6103db565b6001600160a01b031633036102c6576102c16103b4565b905090565b6102ce6100f9565b90565b6102d96103db565b6001600160a01b03163303610192576001600160a01b03811661032b57604051634403424160e01b81526020600482015260096024820152682722abafa0a226a4a760b91b604482015260640161016e565b61018f81610434565b5f61033d6103db565b6001600160a01b031633036102c6576102c16103db565b61035c6103db565b6001600160a01b031633036101115760405163a7515f8d60e01b815260206004820181905260248201527f55504752414441424c455f50524f58593a2041444d494e5f46414c4c4241434b604482015260640161016e565b5f6102c1610487565b365f5f375f5f365f845af43d5f5f3e8080156103d7573d5ff35b3d5ffd5b5f7fb53127684a568b3173ae13b9f8a6016e243e63b6e8ee1178d6a717850b5d61035b546001600160a01b0316919050565b610416826104ae565b805115610430576102946001600160a01b038316826104ed565b5050565b61043d8161055f565b806001600160a01b031661044f6103db565b6001600160a01b03167f7e644d79422f17c01e4894b5f4f588d331ebfa28653d42ae832dc59e38c9798f60405160405180910390a350565b5f7f360894a13ba1a3210667c828492db98dca3e2076cc3735a920a3ca505d382bbc6103fe565b6104b7816105ea565b6040516001600160a01b038216907fbc7cd75a20ee27fd9adebab32041f755214dbc6bffa90cc0225b39da2e5c2d3b905f90a250565b60605f5f846001600160a01b031684604051610509919061077d565b5f60405180830381855af49150503d805f8114610541576040519150601f19603f3d011682016040523d82523d5f602084013e610546565b606091505b5091509150610556858383610644565b95945050505050565b6001600160a01b0381166105a657604051634403424160e01b815260206004820152600d60248201526c41444d494e5f4144445245535360981b604482015260640161016e565b807fb53127684a568b3173ae13b9f8a6016e243e63b6e8ee1178d6a717850b5d61035b80546001600160a01b0319166001600160a01b039290921691909117905550565b6001600160a01b0381163b61061d5760405163a77cdf3160e01b81526001600160a01b038216600482015260240161016e565b807f360894a13ba1a3210667c828492db98dca3e2076cc3735a920a3ca505d382bbc6105c9565b60608261065957610654826106a3565b61069c565b815115801561067057506001600160a01b0384163b155b1561069957604051639996b31560e01b81526001600160a01b038516600482015260240161016e565b50805b9392505050565b8051156106b257805160208201fd5b60405163d6bda27560e01b815260040160405180910390fd5b80356001600160a01b03811681146106e1575f5ffd5b919050565b5f602082840312156106f6575f5ffd5b61069c826106cb565b5f5f5f60408486031215610711575f5ffd5b61071a846106cb565b9250602084013567ffffffffffffffff811115610735575f5ffd5b8401601f81018613610745575f5ffd5b803567ffffffffffffffff81111561075b575f5ffd5b86602082840101111561076c575f5ffd5b939660209190910195509293505050565b5f82518060208501845e5f92019182525091905056fea2646970667358221220b6dd83be34f9c1b4b88095bcb0a8984816c0bfab0a1df191f238d7425fd2aa8264736f6c634300081c0033b53127684a568b3173ae13b9f8a6016e243e63b6e8ee1178d6a717850b5d6103360894a13ba1a3210667c828492db98dca3e2076cc3735a920a3ca505d382bbcd24fa2866a58892622e1ec1b1f591a414cecdee3133ac988707bf0aea153bf11d24fa2866a58892622e1ec1b1f591a414cecdee3133ac988707bf0aea153bf12",
  "linkReferences": {},
  "deployedLinkReferences": {},
  "immutableReferences": {},
  "inputSourceName": "project/contracts/FactoryProxy.sol",
  "buildInfoId": "solc-0_8_28-79d52daff0119074f9b66611958726fcf23099ff"
}