{
  "_format": "hh3-artifact-1",
  "contractName": "LookupOps",
  "sourceName": "contracts/implementation/LookupOps.sol",
  "abi": [
    {
      "inputs": [
        {
          "internalType": "address",
          "name": "target",
          "type": "address"
        }
      ],
      "name": "AddressEmptyCode",
      "type": "error"
    },
    {
      "inputs": [],
      "name": "EmptyInitCallData",
      "type": "error"
    },
    {
      "inputs": [
        {
          "internalType": "address",
          "name": "facet",
          "type": "address"
        },
        {
          "internalType": "bytes4",
          "name": "selector",
          "type": "bytes4"
        }
      ],
      "name": "FacetSelectorExists",
      "type": "error"
    },
    {
      "inputs": [],
      "name": "FailedCall",
      "type": "error"
    },
    {
      "inputs": [
        {
          "internalType": "address",
          "name": "facet",
          "type": "address"
        },
        {
          "internalType": "bytes4",
          "name": "selector",
          "type": "bytes4"
        }
      ],
      "name": "ImmutableFunctionReplacementError",
      "type": "error"
    },
    {
      "inputs": [
        {
          "internalType": "address",
          "name": "facet",
          "type": "address"
        },
        {
          "internalType": "bytes4",
          "name": "selector",
          "type": "bytes4"
        }
      ],
      "name": "ImmutableImplementationReplacementError",
      "type": "error"
    },
    {
      "inputs": [
        {
          "internalType": "address",
          "name": "contractAddress",
          "type": "address"
        }
      ],
      "name": "InvalidFacetContract",
      "type": "error"
    },
    {
      "inputs": [
        {
          "internalType": "address",
          "name": "facet",
          "type": "address"
        },
        {
          "internalType": "bytes4",
          "name": "selector",
          "type": "bytes4"
        }
      ],
      "name": "InvalidFacetFunction",
      "type": "error"
    },
    {
      "inputs": [
        {
          "internalType": "uint256",
          "name": "count",
          "type": "uint256"
        }
      ],
      "name": "InvalidFuncSelectorsCount",
      "type": "error"
    },
    {
      "inputs": [
        {
          "internalType": "bytes8",
          "name": "key",
          "type": "bytes8"
        }
      ],
      "name": "InvalidImplementationLockKey",
      "type": "error"
    },
    {
      "inputs": [
        {
          "internalType": "address",
          "name": "implementation",
          "type": "address"
        },
        {
          "internalType": "bytes4",
          "name": "signature",
          "type": "bytes4"
        }
      ],
      "name": "InvalidLookupImplementation",
      "type": "error"
    },
    {
      "inputs": [
        {
          "internalType": "address",
          "name": "target",
          "type": "address"
        }
      ],
      "name": "NotContractAddress",
      "type": "error"
    },
    {
      "inputs": [
        {
          "internalType": "address",
          "name": "account",
          "type": "address"
        },
        {
          "internalType": "string",
          "name": "message",
          "type": "string"
        }
      ],
      "name": "UnauthorizedAccount",
      "type": "error"
    },
    {
      "inputs": [
        {
          "internalType": "string",
          "name": "message",
          "type": "string"
        }
      ],
      "name": "ZeroAddressNotAllowed",
      "type": "error"
    },
    {
      "anonymous": false,
      "inputs": [
        {
          "components": [
            {
              "internalType": "address",
              "name": "facetAddress",
              "type": "address"
            },
            {
              "internalType": "enum Types.FacetCutAction",
              "name": "action",
              "type": "uint8"
            },
            {
              "internalType": "bytes4[]",
              "name": "functionSelector",
              "type": "bytes4[]"
            }
          ],
          "indexed": false,
          "internalType": "struct Types.FacetCut[]",
          "name": "_diamondCut",
          "type": "tuple[]"
        },
        {
          "indexed": true,
          "internalType": "address",
          "name": "_init",
          "type": "address"
        },
        {
          "indexed": false,
          "internalType": "bytes",
          "name": "_calldata",
          "type": "bytes"
        }
      ],
      "name": "DiamondCut",
      "type": "event"
    },
    {
      "anonymous": false,
      "inputs": [
        {
          "indexed": true,
          "internalType": "address",
          "name": "previousOwner",
          "type": "address"
        },
        {
          "indexed": true,
          "internalType": "address",
          "name": "newOwner",
          "type": "address"
        }
      ],
      "name": "OwnershipTransferred",
      "type": "event"
    },
    {
      "anonymous": false,
      "inputs": [
        {
          "indexed": true,
          "internalType": "address",
          "name": "previousOwner",
          "type": "address"
        },
        {
          "indexed": true,
          "internalType": "address",
          "name": "newOwner",
          "type": "address"
        }
      ],
      "name": "OwnershipTransferred",
      "type": "event"
    },
    {
      "inputs": [
        {
          "components": [
            {
              "internalType": "address",
              "name": "facetAddress",
              "type": "address"
            },
            {
              "internalType": "enum Types.FacetCutAction",
              "name": "action",
              "type": "uint8"
            },
            {
              "internalType": "bytes4[]",
              "name": "functionSelector",
              "type": "bytes4[]"
            }
          ],
          "internalType": "struct Types.FacetCut[]",
          "name": "_diamondCut",
          "type": "tuple[]"
        },
        {
          "internalType": "address",
          "name": "_initTarget",
          "type": "address"
        },
        {
          "internalType": "bytes",
          "name": "_initCalldata",
          "type": "bytes"
        }
      ],
      "name": "diamondCut",
      "outputs": [],
      "stateMutability": "nonpayable",
      "type": "function"
    },
    {
      "inputs": [
        {
          "components": [
            {
              "internalType": "address",
              "name": "facetAddress",
              "type": "address"
            },
            {
              "internalType": "enum Types.FacetCutAction",
              "name": "action",
              "type": "uint8"
            },
            {
              "internalType": "bytes4[]",
              "name": "functionSelector",
              "type": "bytes4[]"
            }
          ],
          "internalType": "struct Types.FacetCut[]",
          "name": "_diamondCut",
          "type": "tuple[]"
        }
      ],
      "name": "diamondCut",
      "outputs": [],
      "stateMutability": "nonpayable",
      "type": "function"
    },
    {
      "inputs": [
        {
          "internalType": "bytes4",
          "name": "_signature",
          "type": "bytes4"
        },
        {
          "internalType": "bytes8",
          "name": "_lockKey",
          "type": "bytes8"
        }
      ],
      "name": "getImplementation",
      "outputs": [
        {
          "internalType": "address",
          "name": "implementation",
          "type": "address"
        }
      ],
      "stateMutability": "view",
      "type": "function"
    },
    {
      "inputs": [
        {
          "internalType": "bytes4",
          "name": "_signature",
          "type": "bytes4"
        }
      ],
      "name": "getImplementation",
      "outputs": [
        {
          "internalType": "address",
          "name": "implementation",
          "type": "address"
        }
      ],
      "stateMutability": "view",
      "type": "function"
    },
    {
      "inputs": [
        {
          "internalType": "address",
          "name": "_implementation",
          "type": "address"
        },
        {
          "internalType": "bytes8",
          "name": "_lockKey",
          "type": "bytes8"
        }
      ],
      "name": "lockImplementation",
      "outputs": [],
      "stateMutability": "nonpayable",
      "type": "function"
    },
    {
      "inputs": [],
      "name": "owner",
      "outputs": [
        {
          "internalType": "address",
          "name": "",
          "type": "address"
        }
      ],
      "stateMutability": "view",
      "type": "function"
    },
    {
      "inputs": [],
      "name": "renounceOwnership",
      "outputs": [],
      "stateMutability": "nonpayable",
      "type": "function"
    },
    {
      "inputs": [
        {
          "internalType": "address",
          "name": "_implementation",
          "type": "address"
        },
        {
          "internalType": "bool",
          "name": "_allowGlobal",
          "type": "bool"
        }
      ],
      "name": "setGlobalUse",
      "outputs": [],
      "stateMutability": "nonpayable",
      "type": "function"
    },
    {
      "inputs": [
        {
          "internalType": "bytes4",
          "name": "_interfaceId",
          "type": "bytes4"
        }
      ],
      "name": "supportsInterface",
      "outputs": [
        {
          "internalType": "bool",
          "name": "",
          "type": "bool"
        }
      ],
      "stateMutability": "view",
      "type": "function"
    },
    {
      "inputs": [
        {
          "internalType": "address",
          "name": "_newOwner",
          "type": "address"
        }
      ],
      "name": "transferOwnership",
      "outputs": [],
      "stateMutability": "nonpayable",
      "type": "function"
    }
  ],
  "bytecode": "0x6080604052348015600e575f5ffd5b5061169c8061001c5f395ff3fe608060405234801561000f575f5ffd5b506004361061009b575f3560e01c8063850ad32c11610063578063850ad32c146101225780638da5cb5b14610135578063dc9cc6451461013d578063e57e69c614610150578063f2fde38b14610163575f5ffd5b806301ffc9a71461009f5780631d468d68146100c75780631f931c1c146100f25780634ea5509514610107578063715018a61461011a575b5f5ffd5b6100b26100ad366004611019565b610176565b60405190151581526020015b60405180910390f35b6100da6100d5366004611049565b6101b8565b6040516001600160a01b0390911681526020016100be565b6101056101003660046110d8565b610288565b005b610105610115366004611184565b61038d565b6101056104ae565b61010561013036600461119e565b6104df565b6100da61057e565b6100da61014b366004611019565b61058c565b61010561015e3660046111d7565b6105ff565b610105610171366004611216565b610679565b6001600160e01b031981165f9081527fd24fa2866a58892622e1ec1b1f591a414cecdee3133ac988707bf0aea153bf14602052604081205460ff165b92915050565b5f6101c2836106ee565b9050610204816001600160a01b03165f9081527f7c06eba404231ceebd4330713cd25308a413732982b23997de7467eb9f8bf7bf602052604090205460ff1690565b6101b2576001600160c01b03198216610253826001600160a01b03165f9081527f7c06eba404231ceebd4330713cd25308a413732982b23997de7467eb9f8bf7c0602052604090205460c01b90565b6001600160c01b031916146101b2578083604051630250902b60e61b815260040161027f92919061122f565b60405180910390fd5b610290610731565b6001600160a01b0316336001600160a01b0316146102ee57335b604080516388c4b81360e01b81526001600160a01b039092166004830152602482015260096044820152682727aa2fa7aba722a960b91b606482015260840161027f565b6103006102fb85876112f1565b610763565b61033f8383838080601f0160208091040260200160405190810160405280939291908181526020018383808284375f920191909152506108b092505050565b826001600160a01b03167f8faa70878671ccd212d20771b795c50af8fd3ff6cf27f4bde57e5d4de0aeb6738686858560405161037e949392919061156f565b60405180910390a25050505050565b610395610731565b6001600160a01b0316336001600160a01b0316146103b357336102aa565b6001600160a01b0382163b6103e65760405163a77cdf3160e01b81526001600160a01b038316600482015260240161027f565b6001600160c01b0319811661041a57604051632986df0160e01b81526001600160c01b03198216600482015260240161027f565b6001600160a01b0382165f9081527f7c06eba404231ceebd4330713cd25308a413732982b23997de7467eb9f8bf7be60205260409020805460ff191660011790556001600160a01b0382165f9081527f7c06eba404231ceebd4330713cd25308a413732982b23997de7467eb9f8bf7c060205260409020805467ffffffffffffffff191660c083901c1790555050565b5050565b6104b6610731565b6001600160a01b0316336001600160a01b0316146104d457336102aa565b6104dd5f61092c565b565b6104e7610731565b6001600160a01b0316336001600160a01b03161461050557336102aa565b6001600160a01b0382163b6105385760405163a77cdf3160e01b81526001600160a01b038316600482015260240161027f565b6001600160a01b0382165f9081527f7c06eba404231ceebd4330713cd25308a413732982b23997de7467eb9f8bf7bf60205260409020805460ff19168215151790555050565b5f610587610731565b905090565b5f610596826106ee565b90506105d8816001600160a01b03165f9081527f7c06eba404231ceebd4330713cd25308a413732982b23997de7467eb9f8bf7be602052604090205460ff1690565b156105fa578082604051630250902b60e61b815260040161027f92919061122f565b919050565b610607610731565b6001600160a01b0316336001600160a01b03161461062557336102aa565b6106326102fb82846112f1565b5f6001600160a01b03167f8faa70878671ccd212d20771b795c50af8fd3ff6cf27f4bde57e5d4de0aeb673838360405161066d9291906115b5565b60405180910390a25050565b610681610731565b6001600160a01b0316336001600160a01b03161461069f57336102aa565b6001600160a01b0381166106e257604051634403424160e01b81526020600482015260096024820152682722abafa7aba722a960b91b604482015260640161027f565b6106eb8161092c565b50565b6001600160e01b0319165f9081527f7c06eba404231ceebd4330713cd25308a413732982b23997de7467eb9f8bf7c160205260409020546001600160a01b031690565b5f6105877fd24fa2866a58892622e1ec1b1f591a414cecdee3133ac988707bf0aea153bf11546001600160a01b031690565b5f5b81518110156104aa575f828281518110610781576107816115df565b602002602001015190505f83838151811061079e5761079e6115df565b60200260200101515f015190505f8484815181106107be576107be6115df565b60200260200101516040015190506107df826001600160a01b03163b151590565b61080757604051631bd5a06560e31b81526001600160a01b038316600482015260240161027f565b80515f0361082d578051604051631a7ceee960e11b815260040161027f91815260200190565b5f8360200151600281111561084457610844611419565b03610858576108538282610935565b6108a5565b60018360200151600281111561087057610870611419565b0361087f576108538282610aa4565b60028360200151600281111561089757610897611419565b036108a5576108a581610be4565b505050600101610765565b6001600160a01b03821630146108f3576001600160a01b0382163b6108f35760405163a77cdf3160e01b81526001600160a01b038316600482015260240161027f565b80515f036109145760405163d303759560e01b815260040160405180910390fd5b6109276001600160a01b03831682610e24565b505050565b6106eb81610e96565b7f7c06eba404231ceebd4330713cd25308a413732982b23997de7467eb9f8bf7bd80545f5b8351811015610a9d575f848281518110610976576109766115df565b6020908102919091018101516001600160e01b031981165f908152600487019092526040909120549091506001600160a01b0316803b156109ce57808260405163940afcf160e01b815260040161027f92919061122f565b6040805180820182526001600160a01b03808a16825261ffff80881660208085018281526001600160e01b031989165f90815260048d01909252958120945185549651909316600160a01b026001600160b01b0319909616929093169190911793909317909155865460010180885590879052839187918110610a5357610a536115df565b905f5260205f2090600891828204019190066004026101000a81548163ffffffff021916908360e01c02179055508380610a8c90611607565b9450506001909201915061095a9050565b5050505050565b7f7c06eba404231ceebd4330713cd25308a413732982b23997de7467eb9f8bf7bd5f5b8251811015610bde575f838281518110610ae357610ae36115df565b6020908102919091018101516001600160e01b031981165f908152600486019092526040909120549091506001600160a01b0316308103610b3b5780826040516303dde0d560e21b815260040161027f92919061122f565b856001600160a01b0316816001600160a01b031603610b7157808260405163458b5d2360e11b815260040161027f92919061122f565b6001600160a01b038116610ba357604051631bd5a06560e31b81526001600160a01b038216600482015260240161027f565b506001600160e01b0319165f908152600483016020526040902080546001600160a01b0319166001600160a01b038616179055600101610ac7565b50505050565b7f7c06eba404231ceebd4330713cd25308a413732982b23997de7467eb9f8bf7bd80545f5b8351811015610bde575f848281518110610c2557610c256115df565b6020908102919091018101516001600160e01b031981165f9081526004870183526040908190208151808301909252546001600160a01b038116808352600160a01b90910461ffff169382019390935290925090610c9b578051604051631cf1d23760e01b815261027f9190849060040161122f565b8051306001600160a01b0390911603610ccc57805160405163458b5d2360e11b815261027f9190849060040161122f565b83610cd681611627565b94505083816020015161ffff1614610db0575f855f018581548110610cfd57610cfd6115df565b905f5260205f2090600891828204019190066004029054906101000a900460e01b905080865f01836020015161ffff1681548110610d3d57610d3d6115df565b5f91825260208083206008830401805460e09590951c6004600790941684026101000a90810263ffffffff9091021990951694909417909355848301516001600160e01b03199094168252880190915260409020805461ffff909216600160a01b0261ffff60a01b199092169190911790555b8454859080610dc157610dc161163c565b5f828152602080822060085f1990940193840401805463ffffffff60046007871681026101000a9190910219909116909155929093556001600160e01b0319909416845286019052506040902080546001600160b01b0319169055600101610c09565b60605f5f846001600160a01b031684604051610e409190611650565b5f60405180830381855af49150503d805f8114610e78576040519150601f19603f3d011682016040523d82523d5f602084013e610e7d565b606091505b5091509150610e8d858383610f7b565b95945050505050565b6001600160a01b038116610ed557604051634403424160e01b815260206004820152600560248201526427aba722a960d91b604482015260640161027f565b5f610f077fd24fa2866a58892622e1ec1b1f591a414cecdee3133ac988707bf0aea153bf11546001600160a01b031690565b7fd24fa2866a58892622e1ec1b1f591a414cecdee3133ac988707bf0aea153bf1180546001600160a01b0319166001600160a01b038581169182178355604051939450919290918416907f8be0079c531659141344cd1fd0a4f28419497f9722a3daafe3b4186f6b6457e0905f90a3505050565b606082610f9057610f8b82610fda565b610fd3565b8151158015610fa757506001600160a01b0384163b155b15610fd057604051639996b31560e01b81526001600160a01b038516600482015260240161027f565b50805b9392505050565b805115610fe957805160208201fd5b60405163d6bda27560e01b815260040160405180910390fd5b80356001600160e01b0319811681146105fa575f5ffd5b5f60208284031215611029575f5ffd5b610fd382611002565b80356001600160c01b0319811681146105fa575f5ffd5b5f5f6040838503121561105a575f5ffd5b61106383611002565b915061107160208401611032565b90509250929050565b5f5f83601f84011261108a575f5ffd5b50813567ffffffffffffffff8111156110a1575f5ffd5b6020830191508360208260051b85010111156110bb575f5ffd5b9250929050565b80356001600160a01b03811681146105fa575f5ffd5b5f5f5f5f5f606086880312156110ec575f5ffd5b853567ffffffffffffffff811115611102575f5ffd5b61110e8882890161107a565b90965094506111219050602087016110c2565b9250604086013567ffffffffffffffff81111561113c575f5ffd5b8601601f8101881361114c575f5ffd5b803567ffffffffffffffff811115611162575f5ffd5b886020828401011115611173575f5ffd5b959894975092955050506020019190565b5f5f60408385031215611195575f5ffd5b611063836110c2565b5f5f604083850312156111af575f5ffd5b6111b8836110c2565b9150602083013580151581146111cc575f5ffd5b809150509250929050565b5f5f602083850312156111e8575f5ffd5b823567ffffffffffffffff8111156111fe575f5ffd5b61120a8582860161107a565b90969095509350505050565b5f60208284031215611226575f5ffd5b610fd3826110c2565b6001600160a01b039290921682526001600160e01b031916602082015260400190565b634e487b7160e01b5f52604160045260245ffd5b6040516060810167ffffffffffffffff8111828210171561128957611289611252565b60405290565b604051601f8201601f1916810167ffffffffffffffff811182821017156112b8576112b8611252565b604052919050565b5f67ffffffffffffffff8211156112d9576112d9611252565b5060051b60200190565b8035600381106105fa575f5ffd5b5f6113036112fe846112c0565b61128f565b8381526020810190600585901b84013681111561131e575f5ffd5b845b8181101561140e57803567ffffffffffffffff81111561133e575f5ffd5b86016060368290031215611350575f5ffd5b611358611266565b611361826110c2565b815261136f602083016112e3565b6020820152604082013567ffffffffffffffff81111561138d575f5ffd5b919091019036601f8301126113a0575f5ffd5b81356113ae6112fe826112c0565b8082825260208201915060208360051b8601019250368311156113cf575f5ffd5b6020850194505b828510156113f8576113e785611002565b8252602094850194909101906113d6565b6040840152505085525060209384019301611320565b509095945050505050565b634e487b7160e01b5f52602160045260245ffd5b8183526020830192505f815f5b8481101561146a576001600160e01b031961145483611002565b168652602095860195919091019060010161143a565b5093949350505050565b5f8383855260208501945060208460051b820101835f5b8681101561156357838303601f19018852813536879003605e190181126114b0575f5ffd5b86016001600160a01b036114c3826110c2565b1684526114d2602082016112e3565b600381106114ee57634e487b7160e01b5f52602160045260245ffd5b6020850152604081013536829003601e1901811261150a575f5ffd5b0160208101903567ffffffffffffffff811115611525575f5ffd5b8060051b3603821315611536575f5ffd5b6060604086015261154b60608601828461142d565b60209a8b019a9095509390930192505060010161148b565b50909695505050505050565b604081525f611582604083018688611474565b8281036020840152838152838560208301375f602085830101526020601f19601f86011682010191505095945050505050565b604081525f6115c8604083018486611474565b8281036020938401525f8152919091019392505050565b634e487b7160e01b5f52603260045260245ffd5b634e487b7160e01b5f52601160045260245ffd5b5f61ffff821661ffff810361161e5761161e6115f3565b60010192915050565b5f81611635576116356115f3565b505f190190565b634e487b7160e01b5f52603160045260245ffd5b5f82518060208501845e5f92019182525091905056fea264697066735822122004073780ef92bcfac652d8f37bca483163da2c62fbf62d07cce15a1aaebcd59864736f6c634300081c0033",
  "linkReferences": {},
  "deployedLinkReferences": {},
  "immutableReferences": {},
  "inputSourceName": "project/contracts/implementation/LookupOps.sol",
  "buildInfoId": "solc-0_8_28-5a91c7a4730f66db69e88bcb4f5c6708e027f336"
}