{
  "_format": "hh3-artifact-1",
  "contractName": "StashDeposit",
  "sourceName": "contracts/implementation/StashDeposit.sol",
  "abi": [
    {
      "inputs": [
        {
          "internalType": "string",
          "name": "action",
          "type": "string"
        }
      ],
      "name": "ActionRejected",
      "type": "error"
    },
    {
      "inputs": [
        {
          "internalType": "string",
          "name": "message",
          "type": "string"
        }
      ],
      "name": "InvalidMessageValue",
      "type": "error"
    },
    {
      "inputs": [
        {
          "internalType": "address",
          "name": "token",
          "type": "address"
        }
      ],
      "name": "InvalidTokenContractAddress",
      "type": "error"
    },
    {
      "inputs": [
        {
          "internalType": "address",
          "name": "account",
          "type": "address"
        },
        {
          "internalType": "address",
          "name": "recipient",
          "type": "address"
        },
        {
          "internalType": "uint256",
          "name": "balance",
          "type": "uint256"
        },
        {
          "internalType": "uint256",
          "name": "amount",
          "type": "uint256"
        },
        {
          "internalType": "address",
          "name": "token",
          "type": "address"
        }
      ],
      "name": "NotEnoughBalance",
      "type": "error"
    },
    {
      "inputs": [
        {
          "internalType": "address",
          "name": "token",
          "type": "address"
        }
      ],
      "name": "SafeERC20FailedOperation",
      "type": "error"
    },
    {
      "anonymous": false,
      "inputs": [
        {
          "indexed": true,
          "internalType": "address",
          "name": "stash",
          "type": "address"
        },
        {
          "indexed": true,
          "internalType": "address",
          "name": "depositor",
          "type": "address"
        },
        {
          "indexed": true,
          "internalType": "address",
          "name": "token",
          "type": "address"
        },
        {
          "indexed": false,
          "internalType": "uint256",
          "name": "amount",
          "type": "uint256"
        }
      ],
      "name": "TokenDeposited",
      "type": "event"
    },
    {
      "inputs": [
        {
          "internalType": "contract IERC20",
          "name": "_token",
          "type": "address"
        },
        {
          "internalType": "uint256",
          "name": "_amount",
          "type": "uint256"
        }
      ],
      "name": "deposit",
      "outputs": [],
      "stateMutability": "nonpayable",
      "type": "function"
    },
    {
      "inputs": [
        {
          "internalType": "uint256",
          "name": "_amount",
          "type": "uint256"
        }
      ],
      "name": "deposit",
      "outputs": [],
      "stateMutability": "payable",
      "type": "function"
    }
  ],
  "bytecode": "0x6080604052348015600e575f5ffd5b506104f48061001c5f395ff3fe608060405260043610610028575f3560e01c806347e7ef241461002c578063b6b55f251461004d575b5f5ffd5b348015610037575f5ffd5b5061004b610046366004610429565b610060565b005b61004b61005b36600461045e565b61006e565b61006a828261007a565b5050565b61007781610116565b50565b6100826101b0565b6001600160a01b0382163b6100ba57604051633cd2ff1760e21b81526001600160a01b03831660048201526024015b60405180910390fd5b6100cf6001600160a01b03831633308461023d565b6040518181526001600160a01b03831690339030907f8826f57f6b30e147fc77562ad01252518d967973ebcbbe9699aebfc51097a0e3906020015b60405180910390a45050565b5f61011f6101b0565b813410156101635760405163094ebb3560e21b815260206004820152601060248201526f4e4f545f454e4f5547485f56414c554560801b60448201526064016100b1565b8134111561017a57813403905061017a338261029d565b6040518281525f90339030907f8826f57f6b30e147fc77562ad01252518d967973ebcbbe9699aebfc51097a0e39060200161010a565b60016101dc7eb135d5328bbc3c558b2494258f72a09a322d68219127d6d593535b579b3f9b5460ff1690565b60018111156101ed576101ed610475565b0361023b5760405163a7515f8d60e01b815260206004820152601b60248201527f53544153485f4445504f5349543a2053544153485f434c4f534544000000000060448201526064016100b1565b565b604080516001600160a01b0385811660248301528416604482015260648082018490528251808303909101815260849091019091526020810180516001600160e01b03166323b872dd60e01b17905261029790859061037d565b50505050565b804710156102e25760405163e3bce8c960e01b81523060048201526001600160a01b0383166024820152476044820152606481018290525f608482015260a4016100b1565b5f5f836001600160a01b0316836040515f6040518083038185875af1925050503d805f811461032c576040519150601f19603f3d011682016040523d82523d5f602084013e610331565b606091505b5091509150610376816040518060400160405280601181526020017014d1539117d59053155157d19052531151607a1b8152508415156103e99092919063ffffffff16565b5050505050565b5f5f60205f8451602086015f885af18061039c576040513d5f823e3d81fd5b50505f513d915081156103b35780600114156103c0565b6001600160a01b0384163b155b1561029757604051635274afe760e01b81526001600160a01b03851660048201526024016100b1565b606083156103f8575081610422565b8251156104085782518084602001fd5b8160405162461bcd60e51b81526004016100b19190610489565b9392505050565b5f5f6040838503121561043a575f5ffd5b82356001600160a01b0381168114610450575f5ffd5b946020939093013593505050565b5f6020828403121561046e575f5ffd5b5035919050565b634e487b7160e01b5f52602160045260245ffd5b602081525f82518060208401528060208501604085015e5f604082850101526040601f19601f8301168401019150509291505056fea2646970667358221220d098c5c1d3a0293806491f9e1c46eb3c2d0173f97115a89d67fb69925518b81764736f6c634300081c0033",
  "linkReferences": {},
  "deployedLinkReferences": {},
  "immutableReferences": {},
  "inputSourceName": "project/contracts/implementation/StashDeposit.sol",
  "buildInfoId": "solc-0_8_28-451f4d7d5b120cb557794ac61110de39b15dc8c0"
}