{
  "_format": "hh3-artifact-1",
  "contractName": "StashOps",
  "sourceName": "contracts/implementation/StashOps.sol",
  "abi": [
    {
      "inputs": [
        {
          "internalType": "address",
          "name": "account",
          "type": "address"
        },
        {
          "internalType": "string",
          "name": "message",
          "type": "string"
        }
      ],
      "name": "UnauthorizedAccount",
      "type": "error"
    },
    {
      "anonymous": false,
      "inputs": [
        {
          "indexed": true,
          "internalType": "address",
          "name": "stash",
          "type": "address"
        },
        {
          "indexed": false,
          "internalType": "enum Types.StashStatus",
          "name": "status",
          "type": "uint8"
        }
      ],
      "name": "StashStatusChanged",
      "type": "event"
    },
    {
      "inputs": [],
      "name": "balance",
      "outputs": [
        {
          "internalType": "uint256",
          "name": "",
          "type": "uint256"
        }
      ],
      "stateMutability": "view",
      "type": "function"
    },
    {
      "inputs": [
        {
          "internalType": "contract IERC20",
          "name": "_token",
          "type": "address"
        }
      ],
      "name": "balance",
      "outputs": [
        {
          "internalType": "uint256",
          "name": "",
          "type": "uint256"
        }
      ],
      "stateMutability": "view",
      "type": "function"
    },
    {
      "inputs": [],
      "name": "getStatus",
      "outputs": [
        {
          "internalType": "enum Types.StashStatus",
          "name": "status",
          "type": "uint8"
        }
      ],
      "stateMutability": "view",
      "type": "function"
    },
    {
      "inputs": [
        {
          "internalType": "enum Types.StashStatus",
          "name": "_status",
          "type": "uint8"
        }
      ],
      "name": "setStatus",
      "outputs": [],
      "stateMutability": "nonpayable",
      "type": "function"
    },
    {
      "inputs": [
        {
          "internalType": "bytes4",
          "name": "_interfaceId",
          "type": "bytes4"
        }
      ],
      "name": "supportsInterface",
      "outputs": [
        {
          "internalType": "bool",
          "name": "",
          "type": "bool"
        }
      ],
      "stateMutability": "view",
      "type": "function"
    }
  ],
  "bytecode": "0x6080604052348015600e575f5ffd5b506103d98061001c5f395ff3fe608060405234801561000f575f5ffd5b5060043610610055575f3560e01c806301ffc9a7146100595780632e49d78b146100815780634e69d56014610096578063b69ef8a8146100ab578063e3d670d7146100bb575b5f5ffd5b61006c6100673660046102e0565b6100ce565b60405190151581526020015b60405180910390f35b61009461008f36600461030e565b610110565b005b61009e610165565b6040516100789190610340565b475b604051908152602001610078565b6100ad6100c9366004610366565b610195565b6001600160e01b031981165f9081527fd24fa2866a58892622e1ec1b1f591a414cecdee3133ac988707bf0aea153bf14602052604081205460ff165b92915050565b61011861019f565b61012181610213565b306001600160a01b03167f28f0113b07d6ac03fdd95f2bda00201b29c0e34e6d98c6c97055f463525642ca8260405161015a9190610340565b60405180910390a250565b5f6101907eb135d5328bbc3c558b2494258f72a09a322d68219127d6d593535b579b3f9b5460ff1690565b905090565b5f61010a82610278565b7fd24fa2866a58892622e1ec1b1f591a414cecdee3133ac988707bf0aea153bf11546001600160a01b0316331461021157604080516388c4b81360e01b8152336004820152602481019190915260096044820152682727aa2fa7aba722a960b91b606482015260840160405180910390fd5b565b7eb135d5328bbc3c558b2494258f72a09a322d68219127d6d593535b579b3f9b80547eb135d5328bbc3c558b2494258f72a09a322d68219127d6d593535b579b3f9991839160ff19166001838181111561026f5761026f61032c565b02179055505050565b6040516370a0823160e01b81523060048201525f906001600160a01b038316906370a0823190602401602060405180830381865afa1580156102bc573d5f5f3e3d5ffd5b505050506040513d601f19601f8201168201806040525081019061010a919061038c565b5f602082840312156102f0575f5ffd5b81356001600160e01b031981168114610307575f5ffd5b9392505050565b5f6020828403121561031e575f5ffd5b813560028110610307575f5ffd5b634e487b7160e01b5f52602160045260245ffd5b602081016002831061036057634e487b7160e01b5f52602160045260245ffd5b91905290565b5f60208284031215610376575f5ffd5b81356001600160a01b0381168114610307575f5ffd5b5f6020828403121561039c575f5ffd5b505191905056fea2646970667358221220449fbaab6d93ad9612b40f81c1b3caf9f9c934255afa965d637c30da0b3abdd464736f6c634300081c0033",
  "linkReferences": {},
  "deployedLinkReferences": {},
  "immutableReferences": {},
  "inputSourceName": "project/contracts/implementation/StashOps.sol",
  "buildInfoId": "solc-0_8_28-ce61d79e8d4d6d2cbe75fcf89a5fa95d63674900"
}