{
  "_format": "hh3-artifact-1",
  "contractName": "StashWithdrawal",
  "sourceName": "contracts/implementation/StashWithdrawal.sol",
  "abi": [
    {
      "inputs": [
        {
          "internalType": "string",
          "name": "action",
          "type": "string"
        }
      ],
      "name": "ActionRejected",
      "type": "error"
    },
    {
      "inputs": [
        {
          "internalType": "address",
          "name": "token",
          "type": "address"
        }
      ],
      "name": "InvalidTokenContractAddress",
      "type": "error"
    },
    {
      "inputs": [
        {
          "internalType": "uint256",
          "name": "amount",
          "type": "uint256"
        }
      ],
      "name": "InvalidWithdrawalAmount",
      "type": "error"
    },
    {
      "inputs": [
        {
          "internalType": "address",
          "name": "recipient",
          "type": "address"
        }
      ],
      "name": "InvalidWithdrawalRecipient",
      "type": "error"
    },
    {
      "inputs": [
        {
          "internalType": "address",
          "name": "account",
          "type": "address"
        },
        {
          "internalType": "address",
          "name": "recipient",
          "type": "address"
        },
        {
          "internalType": "uint256",
          "name": "balance",
          "type": "uint256"
        },
        {
          "internalType": "uint256",
          "name": "amount",
          "type": "uint256"
        },
        {
          "internalType": "address",
          "name": "token",
          "type": "address"
        }
      ],
      "name": "NotEnoughBalance",
      "type": "error"
    },
    {
      "inputs": [
        {
          "internalType": "address",
          "name": "token",
          "type": "address"
        }
      ],
      "name": "SafeERC20FailedOperation",
      "type": "error"
    },
    {
      "anonymous": false,
      "inputs": [
        {
          "indexed": true,
          "internalType": "address",
          "name": "stash",
          "type": "address"
        },
        {
          "indexed": true,
          "internalType": "address",
          "name": "recipient",
          "type": "address"
        },
        {
          "indexed": true,
          "internalType": "address",
          "name": "token",
          "type": "address"
        },
        {
          "indexed": false,
          "internalType": "uint256",
          "name": "amount",
          "type": "uint256"
        }
      ],
      "name": "TokenWithdrawn",
      "type": "event"
    },
    {
      "inputs": [
        {
          "internalType": "uint256",
          "name": "_amount",
          "type": "uint256"
        },
        {
          "internalType": "address",
          "name": "_recipient",
          "type": "address"
        }
      ],
      "name": "withdraw",
      "outputs": [],
      "stateMutability": "payable",
      "type": "function"
    },
    {
      "inputs": [
        {
          "internalType": "contract IERC20",
          "name": "_token",
          "type": "address"
        },
        {
          "internalType": "uint256",
          "name": "_amount",
          "type": "uint256"
        },
        {
          "internalType": "address",
          "name": "_recipient",
          "type": "address"
        }
      ],
      "name": "withdraw",
      "outputs": [],
      "stateMutability": "nonpayable",
      "type": "function"
    }
  ],
  "bytecode": "0x6080604052348015600e575f5ffd5b506105638061001c5f395ff3fe608060405260043610610027575f3560e01c8062f714ce1461002b57806369328dec14610040575b5f5ffd5b61003e610039366004610477565b61005f565b005b34801561004b575f5ffd5b5061003e61005a3660046104a5565b61006d565b610069828261007d565b5050565b6100788383836100d7565b505050565b6100878282610153565b6100918183610237565b6040518281525f906001600160a01b0383169030907ff398d9df386b57ebd82915250392590009e26ddacbed7a8c50a6016cc83d785c9060200160405180910390a45050565b6100e2838383610317565b6100f76001600160a01b038416308385610354565b826001600160a01b0316816001600160a01b0316306001600160a01b03167ff398d9df386b57ebd82915250392590009e26ddacbed7a8c50a6016cc83d785c8560405161014691815260200190565b60405180910390a4505050565b600161017f7eb135d5328bbc3c558b2494258f72a09a322d68219127d6d593535b579b3f9b5460ff1690565b6001811115610190576101906104e4565b036101e35760405163a7515f8d60e01b815260206004820152601b60248201527f53544153485f4445504f5349543a2053544153485f434c4f534544000000000060448201526064015b60405180910390fd5b815f03610206576040516305a4a8e760e01b8152600481018390526024016101da565b6001600160a01b0381166100695760405162ced71160e61b81526001600160a01b03821660048201526024016101da565b8047101561027c5760405163e3bce8c960e01b81523060048201526001600160a01b0383166024820152476044820152606481018290525f608482015260a4016101da565b5f5f836001600160a01b0316836040515f6040518083038185875af1925050503d805f81146102c6576040519150601f19603f3d011682016040523d82523d5f602084013e6102cb565b606091505b5091509150610310816040518060400160405280601181526020017014d1539117d59053155157d19052531151607a1b8152508415156103b49092919063ffffffff16565b5050505050565b6001600160a01b0383163b61034a57604051633cd2ff1760e21b81526001600160a01b03841660048201526024016101da565b6100788282610153565b604080516001600160a01b0385811660248301528416604482015260648082018490528251808303909101815260849091019091526020810180516001600160e01b03166323b872dd60e01b1790526103ae9085906103f4565b50505050565b606083156103c35750816103ed565b8251156103d35782518084602001fd5b8160405162461bcd60e51b81526004016101da91906104f8565b9392505050565b5f5f60205f8451602086015f885af180610413576040513d5f823e3d81fd5b50505f513d9150811561042a578060011415610437565b6001600160a01b0384163b155b156103ae57604051635274afe760e01b81526001600160a01b03851660048201526024016101da565b6001600160a01b0381168114610474575f5ffd5b50565b5f5f60408385031215610488575f5ffd5b82359150602083013561049a81610460565b809150509250929050565b5f5f5f606084860312156104b7575f5ffd5b83356104c281610460565b92506020840135915060408401356104d981610460565b809150509250925092565b634e487b7160e01b5f52602160045260245ffd5b602081525f82518060208401528060208501604085015e5f604082850101526040601f19601f8301168401019150509291505056fea2646970667358221220a7d51c7326a78d9cbc20cf27587be5dc7f48aa5b0aaea5441de94b04e6dc974f64736f6c634300081c0033",
  "linkReferences": {},
  "deployedLinkReferences": {},
  "immutableReferences": {},
  "inputSourceName": "project/contracts/implementation/StashWithdrawal.sol",
  "buildInfoId": "solc-0_8_28-9f79bddb70e198cc346c0fc15f39e9575d16b381"
}